{
  "contractName": "Voting",
  "abi": [
    {
      "inputs": [],
      "stateMutability": "nonpayable",
      "type": "constructor"
    },
    {
      "anonymous": false,
      "inputs": [],
      "name": "ResetVoting",
      "type": "event"
    },
    {
      "anonymous": false,
      "inputs": [
        {
          "indexed": false,
          "internalType": "uint256",
          "name": "candidateId",
          "type": "uint256"
        }
      ],
      "name": "Voted",
      "type": "event"
    },
    {
      "anonymous": false,
      "inputs": [
        {
          "indexed": false,
          "internalType": "uint256",
          "name": "totalVotes",
          "type": "uint256"
        }
      ],
      "name": "VotingFinished",
      "type": "event"
    },
    {
      "inputs": [
        {
          "internalType": "uint256",
          "name": "",
          "type": "uint256"
        }
      ],
      "name": "candidates",
      "outputs": [
        {
          "internalType": "uint256",
          "name": "id",
          "type": "uint256"
        },
        {
          "internalType": "string",
          "name": "name",
          "type": "string"
        },
        {
          "internalType": "uint256",
          "name": "voteCount",
          "type": "uint256"
        }
      ],
      "stateMutability": "view",
      "type": "function",
      "constant": true
    },
    {
      "inputs": [],
      "name": "candidatesCount",
      "outputs": [
        {
          "internalType": "uint256",
          "name": "",
          "type": "uint256"
        }
      ],
      "stateMutability": "view",
      "type": "function",
      "constant": true
    },
    {
      "inputs": [],
      "name": "owner",
      "outputs": [
        {
          "internalType": "address",
          "name": "",
          "type": "address"
        }
      ],
      "stateMutability": "view",
      "type": "function",
      "constant": true
    },
    {
      "inputs": [],
      "name": "voteCount",
      "outputs": [
        {
          "internalType": "uint256",
          "name": "",
          "type": "uint256"
        }
      ],
      "stateMutability": "view",
      "type": "function",
      "constant": true
    },
    {
      "inputs": [
        {
          "internalType": "uint256",
          "name": "",
          "type": "uint256"
        }
      ],
      "name": "voterList",
      "outputs": [
        {
          "internalType": "address",
          "name": "",
          "type": "address"
        }
      ],
      "stateMutability": "view",
      "type": "function",
      "constant": true
    },
    {
      "inputs": [
        {
          "internalType": "address",
          "name": "",
          "type": "address"
        }
      ],
      "name": "voters",
      "outputs": [
        {
          "internalType": "bool",
          "name": "",
          "type": "bool"
        }
      ],
      "stateMutability": "view",
      "type": "function",
      "constant": true
    },
    {
      "inputs": [
        {
          "internalType": "uint256",
          "name": "_candidateId",
          "type": "uint256"
        }
      ],
      "name": "vote",
      "outputs": [],
      "stateMutability": "nonpayable",
      "type": "function"
    },
    {
      "inputs": [],
      "name": "getVoteCount",
      "outputs": [
        {
          "internalType": "uint256",
          "name": "",
          "type": "uint256"
        }
      ],
      "stateMutability": "view",
      "type": "function",
      "constant": true
    },
    {
      "inputs": [],
      "name": "reset",
      "outputs": [],
      "stateMutability": "nonpayable",
      "type": "function"
    }
  ],
  "bytecode": "0x60806040523480156200001157600080fd5b5033600360006101000a81548173ffffffffffffffffffffffffffffffffffffffff021916908373ffffffffffffffffffffffffffffffffffffffff160217905550620000996040518060400160405280600381526020017f546f6d0000000000000000000000000000000000000000000000000000000000815250620000e560201b60201c565b620000df6040518060400160405280600581526020017f4a65727279000000000000000000000000000000000000000000000000000000815250620000e560201b60201c565b62000306565b60026000815480929190620000fa906200025a565b91905055506040518060600160405280600254815260200182815260200160008152506000806002548152602001908152602001600020600082015181600001556020820151816001019080519060200190620001599291906200016a565b506040820151816002015590505050565b828054620001789062000224565b90600052602060002090601f0160209004810192826200019c5760008555620001e8565b82601f10620001b757805160ff1916838001178555620001e8565b82800160010185558215620001e8579182015b82811115620001e7578251825591602001919060010190620001ca565b5b509050620001f79190620001fb565b5090565b5b8082111562000216576000816000905550600101620001fc565b5090565b6000819050919050565b600060028204905060018216806200023d57607f821691505b60208210811415620002545762000253620002d7565b5b50919050565b600062000267826200021a565b91507fffffffffffffffffffffffffffffffffffffffffffffffffffffffffffffffff8214156200029d576200029c620002a8565b5b600182019050919050565b7f4e487b7100000000000000000000000000000000000000000000000000000000600052601160045260246000fd5b7f4e487b7100000000000000000000000000000000000000000000000000000000600052602260045260246000fd5b610c3b80620003166000396000f3fe608060405234801561001057600080fd5b50600436106100935760003560e01c80638da5cb5b116100665780638da5cb5b14610134578063a3ec138d14610152578063c638407114610182578063d826f88f146101a0578063e7b3387c146101aa57610093565b80630121b93f146100985780632d35a8a2146100b45780633477ee2e146100d257806350e2e8af14610104575b600080fd5b6100b260048036038101906100ad91906107f2565b6101c8565b005b6100bc610421565b6040516100c991906109fd565b60405180910390f35b6100ec60048036038101906100e791906107f2565b610427565b6040516100fb93929190610a18565b60405180910390f35b61011e600480360381019061011991906107f2565b6104d9565b60405161012b9190610967565b60405180910390f35b61013c610518565b6040516101499190610967565b60405180910390f35b61016c600480360381019061016791906107c9565b61053e565b6040516101799190610982565b60405180910390f35b61018a61055e565b60405161019791906109fd565b60405180910390f35b6101a8610564565b005b6101b2610757565b6040516101bf91906109fd565b60405180910390f35b600160003373ffffffffffffffffffffffffffffffffffffffff1673ffffffffffffffffffffffffffffffffffffffff16815260200190815260200160002060009054906101000a900460ff1615610255576040517f08c379a000000000000000000000000000000000000000000000000000000000815260040161024c906109bd565b60405180910390fd5b60008111801561026757506002548111155b6102a6576040517f08c379a000000000000000000000000000000000000000000000000000000000815260040161029d906109dd565b60405180910390fd5b60018060003373ffffffffffffffffffffffffffffffffffffffff1673ffffffffffffffffffffffffffffffffffffffff16815260200190815260200160002060006101000a81548160ff0219169083151502179055506004339080600181540180825580915050600190039060005260206000200160009091909190916101000a81548173ffffffffffffffffffffffffffffffffffffffff021916908373ffffffffffffffffffffffffffffffffffffffff160217905550600080828152602001908152602001600020600201600081548092919061038690610b1f565b91905055506005600081548092919061039e90610b1f565b91905055507f7f511e347bf51eed3be100b3194247d5207f05f3b33de7d31e3e8ee73199a049816040516103d291906109fd565b60405180910390a160058054141561041e577f67dd2327eccab76e56070d042e4c2137556510de5aa667f62bf6145d678b9db960055460405161041591906109fd565b60405180910390a15b50565b60025481565b600060205280600052604060002060009150905080600001549080600101805461045090610aed565b80601f016020809104026020016040519081016040528092919081815260200182805461047c90610aed565b80156104c95780601f1061049e576101008083540402835291602001916104c9565b820191906000526020600020905b8154815290600101906020018083116104ac57829003601f168201915b5050505050908060020154905083565b600481815481106104e957600080fd5b906000526020600020016000915054906101000a900473ffffffffffffffffffffffffffffffffffffffff1681565b600360009054906101000a900473ffffffffffffffffffffffffffffffffffffffff1681565b60016020528060005260406000206000915054906101000a900460ff1681565b60055481565b600360009054906101000a900473ffffffffffffffffffffffffffffffffffffffff1673ffffffffffffffffffffffffffffffffffffffff163373ffffffffffffffffffffffffffffffffffffffff16146105f4576040517f08c379a00000000000000000000000000000000000000000000000000000000081526004016105eb9061099d565b60405180910390fd5b6000600190505b600254811161063257600080600083815260200190815260200160002060020181905550808061062a90610b1f565b9150506105fb565b5060005b6004805490508110156107125760006001600060048481548110610683577f4e487b7100000000000000000000000000000000000000000000000000000000600052603260045260246000fd5b9060005260206000200160009054906101000a900473ffffffffffffffffffffffffffffffffffffffff1673ffffffffffffffffffffffffffffffffffffffff1673ffffffffffffffffffffffffffffffffffffffff16815260200190815260200160002060006101000a81548160ff021916908315150217905550808061070a90610b1f565b915050610636565b50600460006107219190610761565b60006005819055507f3cb07b363d97117e3ad78982e027c35d67538cacfc31cfef8962f2890494548f60405160405180910390a1565b6000600554905090565b508054600082559060005260206000209081019061077f9190610782565b50565b5b8082111561079b576000816000905550600101610783565b5090565b6000813590506107ae81610bd7565b92915050565b6000813590506107c381610bee565b92915050565b6000602082840312156107db57600080fd5b60006107e98482850161079f565b91505092915050565b60006020828403121561080457600080fd5b6000610812848285016107b4565b91505092915050565b61082481610a72565b82525050565b61083381610a84565b82525050565b600061084482610a56565b61084e8185610a61565b935061085e818560208601610aba565b61086781610bc6565b840191505092915050565b600061087f602583610a61565b91507f4f6e6c7920746865206f776e65722063616e2063616c6c20746869732066756e60008301527f6374696f6e0000000000000000000000000000000000000000000000000000006020830152604082019050919050565b60006108e5601783610a61565b91507f596f75206861766520616c726561647920766f7465642e0000000000000000006000830152602082019050919050565b6000610925601283610a61565b91507f496e76616c69642063616e6469646174652e00000000000000000000000000006000830152602082019050919050565b61096181610ab0565b82525050565b600060208201905061097c600083018461081b565b92915050565b6000602082019050610997600083018461082a565b92915050565b600060208201905081810360008301526109b681610872565b9050919050565b600060208201905081810360008301526109d6816108d8565b9050919050565b600060208201905081810360008301526109f681610918565b9050919050565b6000602082019050610a126000830184610958565b92915050565b6000606082019050610a2d6000830186610958565b8181036020830152610a3f8185610839565b9050610a4e6040830184610958565b949350505050565b600081519050919050565b600082825260208201905092915050565b6000610a7d82610a90565b9050919050565b60008115159050919050565b600073ffffffffffffffffffffffffffffffffffffffff82169050919050565b6000819050919050565b60005b83811015610ad8578082015181840152602081019050610abd565b83811115610ae7576000848401525b50505050565b60006002820490506001821680610b0557607f821691505b60208210811415610b1957610b18610b97565b5b50919050565b6000610b2a82610ab0565b91507fffffffffffffffffffffffffffffffffffffffffffffffffffffffffffffffff821415610b5d57610b5c610b68565b5b600182019050919050565b7f4e487b7100000000000000000000000000000000000000000000000000000000600052601160045260246000fd5b7f4e487b7100000000000000000000000000000000000000000000000000000000600052602260045260246000fd5b6000601f19601f8301169050919050565b610be081610a72565b8114610beb57600080fd5b50565b610bf781610ab0565b8114610c0257600080fd5b5056fea2646970667358221220ffc7b3637c8d7f190aceb56c0080d219c6ea118080284679b2dc11e4fa6dd33f64736f6c63430008000033",
  "immutableReferences": {},
  "source": "// SPDX-License-Identifier: MIT\r\npragma solidity ^0.8.0;\r\n\r\ncontract Voting {\r\n    struct Candidate {\r\n        uint id;\r\n        string name;\r\n        uint voteCount;\r\n    }\r\n\r\n    mapping(uint => Candidate) public candidates;\r\n    mapping(address => bool) public voters;\r\n    uint public candidatesCount;\r\n    address public owner;\r\n    address[] public voterList;\r\n    uint public voteCount; \r\n\r\n    event Voted(uint candidateId);\r\n    event ResetVoting();\r\n    event VotingFinished(uint totalVotes); \r\n\r\n    modifier onlyOwner() {\r\n        require(msg.sender == owner, \"Only the owner can call this function\");\r\n        _;\r\n    }\r\n\r\n    constructor() {\r\n        owner = msg.sender;\r\n        addCandidate(\"Tom\");\r\n        addCandidate(\"Jerry\");\r\n    }\r\n\r\n    function addCandidate(string memory _name) private {\r\n        candidatesCount++;\r\n        candidates[candidatesCount] = Candidate(candidatesCount, _name, 0);\r\n    }\r\n\r\n    function vote(uint _candidateId) public {\r\n        require(!voters[msg.sender], \"You have already voted.\");\r\n        require(_candidateId > 0 && _candidateId <= candidatesCount, \"Invalid candidate.\");\r\n\r\n        voters[msg.sender] = true;\r\n        voterList.push(msg.sender);\r\n        candidates[_candidateId].voteCount++;\r\n        voteCount++; \r\n\r\n        emit Voted(_candidateId);\r\n\r\n        if (voteCount == 5) {\r\n            emit VotingFinished(voteCount);\r\n        }\r\n    }\r\n\r\n    function getVoteCount() public view returns (uint) {\r\n        return voteCount;\r\n    }\r\n\r\n    function reset() public onlyOwner {\r\n        for (uint i = 1; i <= candidatesCount; i++) {\r\n            candidates[i].voteCount = 0;\r\n        }\r\n        for (uint i = 0; i < voterList.length; i++) {\r\n            voters[voterList[i]] = false;\r\n        }\r\n        delete voterList;\r\n        voteCount = 0;\r\n        emit ResetVoting();\r\n    }\r\n}",
  "sourcePath": "C:\\Users\\tamamama\\Downloads\\final\\voting-dapp\\voting-dapp\\contracts\\Voting.sol",
  "compiler": {
    "name": "solc",
    "version": "0.8.0+commit.c7dfd78e.Emscripten.clang"
  },
  "schemaVersion": "3.4.16",
  "updatedAt": "2025-04-03T16:52:18.202Z",
  "networkType": "ethereum",
  "devdoc": {
    "kind": "dev",
    "methods": {},
    "version": 1
  },
  "userdoc": {
    "kind": "user",
    "methods": {},
    "version": 1
  }
}